{
  "_format": "hh3-artifact-1",
  "contractName": "MockUSDC",
  "sourceName": "contracts/MockUSDC.sol",
  "abi": [
    {
      "inputs": [],
      "stateMutability": "nonpayable",
      "type": "constructor"
    },
    {
      "inputs": [
        {
          "internalType": "address",
          "name": "spender",
          "type": "address"
        },
        {
          "internalType": "uint256",
          "name": "allowance",
          "type": "uint256"
        },
        {
          "internalType": "uint256",
          "name": "needed",
          "type": "uint256"
        }
      ],
      "name": "ERC20InsufficientAllowance",
      "type": "error"
    },
    {
      "inputs": [
        {
          "internalType": "address",
          "name": "sender",
          "type": "address"
        },
        {
          "internalType": "uint256",
          "name": "balance",
          "type": "uint256"
        },
        {
          "internalType": "uint256",
          "name": "needed",
          "type": "uint256"
        }
      ],
      "name": "ERC20InsufficientBalance",
      "type": "error"
    },
    {
      "inputs": [
        {
          "internalType": "address",
          "name": "approver",
          "type": "address"
        }
      ],
      "name": "ERC20InvalidApprover",
      "type": "error"
    },
    {
      "inputs": [
        {
          "internalType": "address",
          "name": "receiver",
          "type": "address"
        }
      ],
      "name": "ERC20InvalidReceiver",
      "type": "error"
    },
    {
      "inputs": [
        {
          "internalType": "address",
          "name": "sender",
          "type": "address"
        }
      ],
      "name": "ERC20InvalidSender",
      "type": "error"
    },
    {
      "inputs": [
        {
          "internalType": "address",
          "name": "spender",
          "type": "address"
        }
      ],
      "name": "ERC20InvalidSpender",
      "type": "error"
    },
    {
      "anonymous": false,
      "inputs": [
        {
          "indexed": true,
          "internalType": "address",
          "name": "owner",
          "type": "address"
        },
        {
          "indexed": true,
          "internalType": "address",
          "name": "spender",
          "type": "address"
        },
        {
          "indexed": false,
          "internalType": "uint256",
          "name": "value",
          "type": "uint256"
        }
      ],
      "name": "Approval",
      "type": "event"
    },
    {
      "anonymous": false,
      "inputs": [
        {
          "indexed": true,
          "internalType": "address",
          "name": "from",
          "type": "address"
        },
        {
          "indexed": true,
          "internalType": "address",
          "name": "to",
          "type": "address"
        },
        {
          "indexed": false,
          "internalType": "uint256",
          "name": "value",
          "type": "uint256"
        }
      ],
      "name": "Transfer",
      "type": "event"
    },
    {
      "inputs": [
        {
          "internalType": "address",
          "name": "owner",
          "type": "address"
        },
        {
          "internalType": "address",
          "name": "spender",
          "type": "address"
        }
      ],
      "name": "allowance",
      "outputs": [
        {
          "internalType": "uint256",
          "name": "",
          "type": "uint256"
        }
      ],
      "stateMutability": "view",
      "type": "function"
    },
    {
      "inputs": [
        {
          "internalType": "address",
          "name": "spender",
          "type": "address"
        },
        {
          "internalType": "uint256",
          "name": "value",
          "type": "uint256"
        }
      ],
      "name": "approve",
      "outputs": [
        {
          "internalType": "bool",
          "name": "",
          "type": "bool"
        }
      ],
      "stateMutability": "nonpayable",
      "type": "function"
    },
    {
      "inputs": [
        {
          "internalType": "address",
          "name": "account",
          "type": "address"
        }
      ],
      "name": "balanceOf",
      "outputs": [
        {
          "internalType": "uint256",
          "name": "",
          "type": "uint256"
        }
      ],
      "stateMutability": "view",
      "type": "function"
    },
    {
      "inputs": [],
      "name": "decimals",
      "outputs": [
        {
          "internalType": "uint8",
          "name": "",
          "type": "uint8"
        }
      ],
      "stateMutability": "view",
      "type": "function"
    },
    {
      "inputs": [
        {
          "internalType": "address",
          "name": "to",
          "type": "address"
        },
        {
          "internalType": "uint256",
          "name": "amount",
          "type": "uint256"
        }
      ],
      "name": "mint",
      "outputs": [],
      "stateMutability": "nonpayable",
      "type": "function"
    },
    {
      "inputs": [
        {
          "internalType": "address",
          "name": "to",
          "type": "address"
        },
        {
          "internalType": "uint256",
          "name": "amount",
          "type": "uint256"
        }
      ],
      "name": "mintUSDC",
      "outputs": [],
      "stateMutability": "nonpayable",
      "type": "function"
    },
    {
      "inputs": [],
      "name": "name",
      "outputs": [
        {
          "internalType": "string",
          "name": "",
          "type": "string"
        }
      ],
      "stateMutability": "view",
      "type": "function"
    },
    {
      "inputs": [],
      "name": "symbol",
      "outputs": [
        {
          "internalType": "string",
          "name": "",
          "type": "string"
        }
      ],
      "stateMutability": "view",
      "type": "function"
    },
    {
      "inputs": [],
      "name": "totalSupply",
      "outputs": [
        {
          "internalType": "uint256",
          "name": "",
          "type": "uint256"
        }
      ],
      "stateMutability": "view",
      "type": "function"
    },
    {
      "inputs": [
        {
          "internalType": "address",
          "name": "to",
          "type": "address"
        },
        {
          "internalType": "uint256",
          "name": "value",
          "type": "uint256"
        }
      ],
      "name": "transfer",
      "outputs": [
        {
          "internalType": "bool",
          "name": "",
          "type": "bool"
        }
      ],
      "stateMutability": "nonpayable",
      "type": "function"
    },
    {
      "inputs": [
        {
          "internalType": "address",
          "name": "from",
          "type": "address"
        },
        {
          "internalType": "address",
          "name": "to",
          "type": "address"
        },
        {
          "internalType": "uint256",
          "name": "value",
          "type": "uint256"
        }
      ],
      "name": "transferFrom",
      "outputs": [
        {
          "internalType": "bool",
          "name": "",
          "type": "bool"
        }
      ],
      "stateMutability": "nonpayable",
      "type": "function"
    }
  ],
  "bytecode": "0x608060405234801562000010575f80fd5b506040518060400160405280600981526020017f4d6f636b205553444300000000000000000000000000000000000000000000008152506040518060400160405280600481526020017f555344430000000000000000000000000000000000000000000000000000000081525081600390816200008e919062000614565b508060049081620000a0919062000614565b505050600660055f6101000a81548160ff021916908360ff160217905550620000fc3360055f9054906101000a900460ff16600a620000e0919062000881565b620f4240620000f09190620008d1565b6200010260201b60201c565b62000a1a565b5f73ffffffffffffffffffffffffffffffffffffffff168273ffffffffffffffffffffffffffffffffffffffff160362000175575f6040517fec442f050000000000000000000000000000000000000000000000000000000081526004016200016c91906200095e565b60405180910390fd5b620001885f83836200018c60201b60201c565b5050565b5f73ffffffffffffffffffffffffffffffffffffffff168373ffffffffffffffffffffffffffffffffffffffff1603620001e0578060025f828254620001d3919062000979565b92505081905550620002b1565b5f805f8573ffffffffffffffffffffffffffffffffffffffff1673ffffffffffffffffffffffffffffffffffffffff1681526020019081526020015f20549050818110156200026c578381836040517fe450d38c0000000000000000000000000000000000000000000000000000000081526004016200026393929190620009c4565b60405180910390fd5b8181035f808673ffffffffffffffffffffffffffffffffffffffff1673ffffffffffffffffffffffffffffffffffffffff1681526020019081526020015f2081905550505b5f73ffffffffffffffffffffffffffffffffffffffff168273ffffffffffffffffffffffffffffffffffffffff1603620002fa578060025f828254039250508190555062000344565b805f808473ffffffffffffffffffffffffffffffffffffffff1673ffffffffffffffffffffffffffffffffffffffff1681526020019081526020015f205f82825401925050819055505b8173ffffffffffffffffffffffffffffffffffffffff168373ffffffffffffffffffffffffffffffffffffffff167fddf252ad1be2c89b69c2b068fc378daa952ba7f163c4a11628f55a4df523b3ef83604051620003a39190620009ff565b60405180910390a3505050565b5f81519050919050565b7f4e487b71000000000000000000000000000000000000000000000000000000005f52604160045260245ffd5b7f4e487b71000000000000000000000000000000000000000000000000000000005f52602260045260245ffd5b5f60028204905060018216806200042c57607f821691505b602082108103620004425762000441620003e7565b5b50919050565b5f819050815f5260205f209050919050565b5f6020601f8301049050919050565b5f82821b905092915050565b5f60088302620004a67fffffffffffffffffffffffffffffffffffffffffffffffffffffffffffffffff8262000469565b620004b2868362000469565b95508019841693508086168417925050509392505050565b5f819050919050565b5f819050919050565b5f620004fc620004f6620004f084620004ca565b620004d3565b620004ca565b9050919050565b5f819050919050565b6200051783620004dc565b6200052f620005268262000503565b84845462000475565b825550505050565b5f90565b6200054562000537565b620005528184846200050c565b505050565b5b8181101562000579576200056d5f826200053b565b60018101905062000558565b5050565b601f821115620005c857620005928162000448565b6200059d846200045a565b81016020851015620005ad578190505b620005c5620005bc856200045a565b83018262000557565b50505b505050565b5f82821c905092915050565b5f620005ea5f1984600802620005cd565b1980831691505092915050565b5f620006048383620005d9565b9150826002028217905092915050565b6200061f82620003b0565b67ffffffffffffffff8111156200063b576200063a620003ba565b5b62000647825462000414565b620006548282856200057d565b5f60209050601f8311600181146200068a575f841562000675578287015190505b620006818582620005f7565b865550620006f0565b601f1984166200069a8662000448565b5f5b82811015620006c3578489015182556001820191506020850194506020810190506200069c565b86831015620006e35784890151620006df601f891682620005d9565b8355505b6001600288020188555050505b505050505050565b7f4e487b71000000000000000000000000000000000000000000000000000000005f52601160045260245ffd5b5f8160011c9050919050565b5f808291508390505b600185111562000782578086048111156200075a5762000759620006f8565b5b60018516156200076a5780820291505b80810290506200077a8562000725565b94506200073a565b94509492505050565b5f826200079c57600190506200086e565b81620007ab575f90506200086e565b8160018114620007c45760028114620007cf5762000805565b60019150506200086e565b60ff841115620007e457620007e3620006f8565b5b8360020a915084821115620007fe57620007fd620006f8565b5b506200086e565b5060208310610133831016604e8410600b84101617156200083f5782820a905083811115620008395762000838620006f8565b5b6200086e565b6200084e848484600162000731565b92509050818404811115620008685762000867620006f8565b5b81810290505b9392505050565b5f60ff82169050919050565b5f6200088d82620004ca565b91506200089a8362000875565b9250620008c97fffffffffffffffffffffffffffffffffffffffffffffffffffffffffffffffff84846200078b565b905092915050565b5f620008dd82620004ca565b9150620008ea83620004ca565b9250828202620008fa81620004ca565b91508282048414831517620009145762000913620006f8565b5b5092915050565b5f73ffffffffffffffffffffffffffffffffffffffff82169050919050565b5f62000946826200091b565b9050919050565b62000958816200093a565b82525050565b5f602082019050620009735f8301846200094d565b92915050565b5f6200098582620004ca565b91506200099283620004ca565b9250828201905080821115620009ad57620009ac620006f8565b5b92915050565b620009be81620004ca565b82525050565b5f606082019050620009d95f8301866200094d565b620009e86020830185620009b3565b620009f76040830184620009b3565b949350505050565b5f60208201905062000a145f830184620009b3565b92915050565b6110d18062000a285f395ff3fe608060405234801561000f575f80fd5b50600436106100a7575f3560e01c806340c10f191161006f57806340c10f191461016557806370a08231146101815780638ddbb08a146101b157806395d89b41146101cd578063a9059cbb146101eb578063dd62ed3e1461021b576100a7565b806306fdde03146100ab578063095ea7b3146100c957806318160ddd146100f957806323b872dd14610117578063313ce56714610147575b5f80fd5b6100b361024b565b6040516100c09190610b90565b60405180910390f35b6100e360048036038101906100de9190610c41565b6102db565b6040516100f09190610c99565b60405180910390f35b6101016102fd565b60405161010e9190610cc1565b60405180910390f35b610131600480360381019061012c9190610cda565b610306565b60405161013e9190610c99565b60405180910390f35b61014f610334565b60405161015c9190610d45565b60405180910390f35b61017f600480360381019061017a9190610c41565b610349565b005b61019b60048036038101906101969190610d5e565b610357565b6040516101a89190610cc1565b60405180910390f35b6101cb60048036038101906101c69190610c41565b61039c565b005b6101d56103cf565b6040516101e29190610b90565b60405180910390f35b61020560048036038101906102009190610c41565b61045f565b6040516102129190610c99565b60405180910390f35b61023560048036038101906102309190610d89565b610481565b6040516102429190610cc1565b60405180910390f35b60606003805461025a90610df4565b80601f016020809104026020016040519081016040528092919081815260200182805461028690610df4565b80156102d15780601f106102a8576101008083540402835291602001916102d1565b820191905f5260205f20905b8154815290600101906020018083116102b457829003601f168201915b5050505050905090565b5f806102e5610503565b90506102f281858561050a565b600191505092915050565b5f600254905090565b5f80610310610503565b905061031d85828561051c565b6103288585856105af565b60019150509392505050565b5f60055f9054906101000a900460ff16905090565b610353828261069f565b5050565b5f805f8373ffffffffffffffffffffffffffffffffffffffff1673ffffffffffffffffffffffffffffffffffffffff1681526020019081526020015f20549050919050565b6103cb8260055f9054906101000a900460ff16600a6103bb9190610f80565b836103c69190610fca565b61069f565b5050565b6060600480546103de90610df4565b80601f016020809104026020016040519081016040528092919081815260200182805461040a90610df4565b80156104555780601f1061042c57610100808354040283529160200191610455565b820191905f5260205f20905b81548152906001019060200180831161043857829003601f168201915b5050505050905090565b5f80610469610503565b90506104768185856105af565b600191505092915050565b5f60015f8473ffffffffffffffffffffffffffffffffffffffff1673ffffffffffffffffffffffffffffffffffffffff1681526020019081526020015f205f8373ffffffffffffffffffffffffffffffffffffffff1673ffffffffffffffffffffffffffffffffffffffff1681526020019081526020015f2054905092915050565b5f33905090565b610517838383600161071e565b505050565b5f6105278484610481565b90507fffffffffffffffffffffffffffffffffffffffffffffffffffffffffffffffff8110156105a9578181101561059a578281836040517ffb8f41b20000000000000000000000000000000000000000000000000000000081526004016105919392919061101a565b60405180910390fd5b6105a884848484035f61071e565b5b50505050565b5f73ffffffffffffffffffffffffffffffffffffffff168373ffffffffffffffffffffffffffffffffffffffff160361061f575f6040517f96c6fd1e000000000000000000000000000000000000000000000000000000008152600401610616919061104f565b60405180910390fd5b5f73ffffffffffffffffffffffffffffffffffffffff168273ffffffffffffffffffffffffffffffffffffffff160361068f575f6040517fec442f05000000000000000000000000000000000000000000000000000000008152600401610686919061104f565b60405180910390fd5b61069a8383836108ed565b505050565b5f73ffffffffffffffffffffffffffffffffffffffff168273ffffffffffffffffffffffffffffffffffffffff160361070f575f6040517fec442f05000000000000000000000000000000000000000000000000000000008152600401610706919061104f565b60405180910390fd5b61071a5f83836108ed565b5050565b5f73ffffffffffffffffffffffffffffffffffffffff168473ffffffffffffffffffffffffffffffffffffffff160361078e575f6040517fe602df05000000000000000000000000000000000000000000000000000000008152600401610785919061104f565b60405180910390fd5b5f73ffffffffffffffffffffffffffffffffffffffff168373ffffffffffffffffffffffffffffffffffffffff16036107fe575f6040517f94280d620000000000000000000000000000000000000000000000000000000081526004016107f5919061104f565b60405180910390fd5b8160015f8673ffffffffffffffffffffffffffffffffffffffff1673ffffffffffffffffffffffffffffffffffffffff1681526020019081526020015f205f8573ffffffffffffffffffffffffffffffffffffffff1673ffffffffffffffffffffffffffffffffffffffff1681526020019081526020015f208190555080156108e7578273ffffffffffffffffffffffffffffffffffffffff168473ffffffffffffffffffffffffffffffffffffffff167f8c5be1e5ebec7d5bd14f71427d1e84f3dd0314c0f7b2291e5b200ac8c7c3b925846040516108de9190610cc1565b60405180910390a35b50505050565b5f73ffffffffffffffffffffffffffffffffffffffff168373ffffffffffffffffffffffffffffffffffffffff160361093d578060025f8282546109319190611068565b92505081905550610a0b565b5f805f8573ffffffffffffffffffffffffffffffffffffffff1673ffffffffffffffffffffffffffffffffffffffff1681526020019081526020015f20549050818110156109c6578381836040517fe450d38c0000000000000000000000000000000000000000000000000000000081526004016109bd9392919061101a565b60405180910390fd5b8181035f808673ffffffffffffffffffffffffffffffffffffffff1673ffffffffffffffffffffffffffffffffffffffff1681526020019081526020015f2081905550505b5f73ffffffffffffffffffffffffffffffffffffffff168273ffffffffffffffffffffffffffffffffffffffff1603610a52578060025f8282540392505081905550610a9c565b805f808473ffffffffffffffffffffffffffffffffffffffff1673ffffffffffffffffffffffffffffffffffffffff1681526020019081526020015f205f82825401925050819055505b8173ffffffffffffffffffffffffffffffffffffffff168373ffffffffffffffffffffffffffffffffffffffff167fddf252ad1be2c89b69c2b068fc378daa952ba7f163c4a11628f55a4df523b3ef83604051610af99190610cc1565b60405180910390a3505050565b5f81519050919050565b5f82825260208201905092915050565b5f5b83811015610b3d578082015181840152602081019050610b22565b5f8484015250505050565b5f601f19601f8301169050919050565b5f610b6282610b06565b610b6c8185610b10565b9350610b7c818560208601610b20565b610b8581610b48565b840191505092915050565b5f6020820190508181035f830152610ba88184610b58565b905092915050565b5f80fd5b5f73ffffffffffffffffffffffffffffffffffffffff82169050919050565b5f610bdd82610bb4565b9050919050565b610bed81610bd3565b8114610bf7575f80fd5b50565b5f81359050610c0881610be4565b92915050565b5f819050919050565b610c2081610c0e565b8114610c2a575f80fd5b50565b5f81359050610c3b81610c17565b92915050565b5f8060408385031215610c5757610c56610bb0565b5b5f610c6485828601610bfa565b9250506020610c7585828601610c2d565b9150509250929050565b5f8115159050919050565b610c9381610c7f565b82525050565b5f602082019050610cac5f830184610c8a565b92915050565b610cbb81610c0e565b82525050565b5f602082019050610cd45f830184610cb2565b92915050565b5f805f60608486031215610cf157610cf0610bb0565b5b5f610cfe86828701610bfa565b9350506020610d0f86828701610bfa565b9250506040610d2086828701610c2d565b9150509250925092565b5f60ff82169050919050565b610d3f81610d2a565b82525050565b5f602082019050610d585f830184610d36565b92915050565b5f60208284031215610d7357610d72610bb0565b5b5f610d8084828501610bfa565b91505092915050565b5f8060408385031215610d9f57610d9e610bb0565b5b5f610dac85828601610bfa565b9250506020610dbd85828601610bfa565b9150509250929050565b7f4e487b71000000000000000000000000000000000000000000000000000000005f52602260045260245ffd5b5f6002820490506001821680610e0b57607f821691505b602082108103610e1e57610e1d610dc7565b5b50919050565b7f4e487b71000000000000000000000000000000000000000000000000000000005f52601160045260245ffd5b5f8160011c9050919050565b5f808291508390505b6001851115610ea657808604811115610e8257610e81610e24565b5b6001851615610e915780820291505b8081029050610e9f85610e51565b9450610e66565b94509492505050565b5f82610ebe5760019050610f79565b81610ecb575f9050610f79565b8160018114610ee15760028114610eeb57610f1a565b6001915050610f79565b60ff841115610efd57610efc610e24565b5b8360020a915084821115610f1457610f13610e24565b5b50610f79565b5060208310610133831016604e8410600b8410161715610f4f5782820a905083811115610f4a57610f49610e24565b5b610f79565b610f5c8484846001610e5d565b92509050818404811115610f7357610f72610e24565b5b81810290505b9392505050565b5f610f8a82610c0e565b9150610f9583610d2a565b9250610fc27fffffffffffffffffffffffffffffffffffffffffffffffffffffffffffffffff8484610eaf565b905092915050565b5f610fd482610c0e565b9150610fdf83610c0e565b9250828202610fed81610c0e565b9150828204841483151761100457611003610e24565b5b5092915050565b61101481610bd3565b82525050565b5f60608201905061102d5f83018661100b565b61103a6020830185610cb2565b6110476040830184610cb2565b949350505050565b5f6020820190506110625f83018461100b565b92915050565b5f61107282610c0e565b915061107d83610c0e565b925082820190508082111561109557611094610e24565b5b9291505056fea264697066735822122075c167d0f788acdc491b733c6bc6c2473dc35cda6e66125652668a13e9eb337b64736f6c63430008180033",
  "linkReferences": {},
  "deployedLinkReferences": {},
  "immutableReferences": {},
  "inputSourceName": "project/contracts/MockUSDC.sol",
  "buildInfoId": "solc-0_8_24-cf4ee9eb7b799b4a44368a7af7771069cfc5a057"
}