{
  "_format": "hh3-artifact-1",
  "contractName": "PredictionMarket",
  "sourceName": "contracts/PredictionMarket.sol",
  "abi": [
    {
      "inputs": [
        {
          "internalType": "address",
          "name": "_usdcToken",
          "type": "address"
        }
      ],
      "stateMutability": "nonpayable",
      "type": "constructor"
    },
    {
      "inputs": [],
      "name": "ReentrancyGuardReentrantCall",
      "type": "error"
    },
    {
      "inputs": [
        {
          "internalType": "address",
          "name": "token",
          "type": "address"
        }
      ],
      "name": "SafeERC20FailedOperation",
      "type": "error"
    },
    {
      "anonymous": false,
      "inputs": [
        {
          "indexed": true,
          "internalType": "uint256",
          "name": "topicId",
          "type": "uint256"
        },
        {
          "indexed": true,
          "internalType": "address",
          "name": "player",
          "type": "address"
        },
        {
          "indexed": false,
          "internalType": "uint256",
          "name": "choice",
          "type": "uint256"
        }
      ],
      "name": "PlayerJoined",
      "type": "event"
    },
    {
      "anonymous": false,
      "inputs": [
        {
          "indexed": true,
          "internalType": "uint256",
          "name": "topicId",
          "type": "uint256"
        },
        {
          "indexed": true,
          "internalType": "address",
          "name": "winner",
          "type": "address"
        },
        {
          "indexed": false,
          "internalType": "uint256",
          "name": "amount",
          "type": "uint256"
        }
      ],
      "name": "RewardClaimed",
      "type": "event"
    },
    {
      "anonymous": false,
      "inputs": [
        {
          "indexed": true,
          "internalType": "uint256",
          "name": "topicId",
          "type": "uint256"
        },
        {
          "indexed": true,
          "internalType": "address",
          "name": "creator",
          "type": "address"
        },
        {
          "indexed": false,
          "internalType": "string",
          "name": "title",
          "type": "string"
        },
        {
          "indexed": false,
          "internalType": "uint256",
          "name": "betAmount",
          "type": "uint256"
        }
      ],
      "name": "TopicCreated",
      "type": "event"
    },
    {
      "anonymous": false,
      "inputs": [
        {
          "indexed": true,
          "internalType": "uint256",
          "name": "topicId",
          "type": "uint256"
        },
        {
          "indexed": false,
          "internalType": "uint256",
          "name": "winningOption",
          "type": "uint256"
        },
        {
          "indexed": false,
          "internalType": "address",
          "name": "winner",
          "type": "address"
        }
      ],
      "name": "TopicResolved",
      "type": "event"
    },
    {
      "inputs": [
        {
          "internalType": "uint256",
          "name": "topicId",
          "type": "uint256"
        }
      ],
      "name": "claimReward",
      "outputs": [],
      "stateMutability": "nonpayable",
      "type": "function"
    },
    {
      "inputs": [
        {
          "internalType": "string",
          "name": "title",
          "type": "string"
        },
        {
          "internalType": "string[]",
          "name": "options",
          "type": "string[]"
        },
        {
          "internalType": "uint256",
          "name": "betAmount",
          "type": "uint256"
        },
        {
          "internalType": "uint256",
          "name": "choice",
          "type": "uint256"
        }
      ],
      "name": "createTopic",
      "outputs": [],
      "stateMutability": "nonpayable",
      "type": "function"
    },
    {
      "inputs": [],
      "name": "getAllTopicIds",
      "outputs": [
        {
          "internalType": "uint256[]",
          "name": "",
          "type": "uint256[]"
        }
      ],
      "stateMutability": "view",
      "type": "function"
    },
    {
      "inputs": [
        {
          "internalType": "uint256",
          "name": "topicId",
          "type": "uint256"
        }
      ],
      "name": "getTopic",
      "outputs": [
        {
          "internalType": "uint256",
          "name": "id",
          "type": "uint256"
        },
        {
          "internalType": "address",
          "name": "creator",
          "type": "address"
        },
        {
          "internalType": "string",
          "name": "title",
          "type": "string"
        },
        {
          "internalType": "string[]",
          "name": "options",
          "type": "string[]"
        },
        {
          "internalType": "uint256",
          "name": "betAmount",
          "type": "uint256"
        },
        {
          "internalType": "address[2]",
          "name": "players",
          "type": "address[2]"
        },
        {
          "internalType": "uint256[2]",
          "name": "playerChoices",
          "type": "uint256[2]"
        },
        {
          "internalType": "uint256",
          "name": "totalPool",
          "type": "uint256"
        },
        {
          "internalType": "enum PredictionMarket.TopicStatus",
          "name": "status",
          "type": "uint8"
        },
        {
          "internalType": "uint256",
          "name": "winningOption",
          "type": "uint256"
        },
        {
          "internalType": "address",
          "name": "winner",
          "type": "address"
        }
      ],
      "stateMutability": "view",
      "type": "function"
    },
    {
      "inputs": [],
      "name": "getTopicsCount",
      "outputs": [
        {
          "internalType": "uint256",
          "name": "",
          "type": "uint256"
        }
      ],
      "stateMutability": "view",
      "type": "function"
    },
    {
      "inputs": [
        {
          "internalType": "address",
          "name": "user",
          "type": "address"
        }
      ],
      "name": "getUserCreatedTopics",
      "outputs": [
        {
          "internalType": "uint256[]",
          "name": "",
          "type": "uint256[]"
        }
      ],
      "stateMutability": "view",
      "type": "function"
    },
    {
      "inputs": [
        {
          "internalType": "address",
          "name": "user",
          "type": "address"
        }
      ],
      "name": "getUserJoinedTopics",
      "outputs": [
        {
          "internalType": "uint256[]",
          "name": "",
          "type": "uint256[]"
        }
      ],
      "stateMutability": "view",
      "type": "function"
    },
    {
      "inputs": [
        {
          "internalType": "uint256",
          "name": "topicId",
          "type": "uint256"
        },
        {
          "internalType": "uint256",
          "name": "choice",
          "type": "uint256"
        }
      ],
      "name": "joinTopic",
      "outputs": [],
      "stateMutability": "nonpayable",
      "type": "function"
    },
    {
      "inputs": [],
      "name": "nextTopicId",
      "outputs": [
        {
          "internalType": "uint256",
          "name": "",
          "type": "uint256"
        }
      ],
      "stateMutability": "view",
      "type": "function"
    },
    {
      "inputs": [
        {
          "internalType": "uint256",
          "name": "topicId",
          "type": "uint256"
        },
        {
          "internalType": "uint256",
          "name": "winningOption",
          "type": "uint256"
        }
      ],
      "name": "resolveTopic",
      "outputs": [],
      "stateMutability": "nonpayable",
      "type": "function"
    },
    {
      "inputs": [
        {
          "internalType": "uint256",
          "name": "",
          "type": "uint256"
        }
      ],
      "name": "topicIds",
      "outputs": [
        {
          "internalType": "uint256",
          "name": "",
          "type": "uint256"
        }
      ],
      "stateMutability": "view",
      "type": "function"
    },
    {
      "inputs": [
        {
          "internalType": "uint256",
          "name": "",
          "type": "uint256"
        }
      ],
      "name": "topics",
      "outputs": [
        {
          "internalType": "uint256",
          "name": "id",
          "type": "uint256"
        },
        {
          "internalType": "address",
          "name": "creator",
          "type": "address"
        },
        {
          "internalType": "string",
          "name": "title",
          "type": "string"
        },
        {
          "internalType": "uint256",
          "name": "betAmount",
          "type": "uint256"
        },
        {
          "internalType": "uint256",
          "name": "totalPool",
          "type": "uint256"
        },
        {
          "internalType": "enum PredictionMarket.TopicStatus",
          "name": "status",
          "type": "uint8"
        },
        {
          "internalType": "uint256",
          "name": "winningOption",
          "type": "uint256"
        },
        {
          "internalType": "address",
          "name": "winner",
          "type": "address"
        }
      ],
      "stateMutability": "view",
      "type": "function"
    },
    {
      "inputs": [],
      "name": "usdcToken",
      "outputs": [
        {
          "internalType": "contract IERC20",
          "name": "",
          "type": "address"
        }
      ],
      "stateMutability": "view",
      "type": "function"
    }
  ],
  "bytecode": "0x60a060405234801562000010575f80fd5b50604051620030ed380380620030ed8339818101604052810190620000369190620000e4565b60015f819055508073ffffffffffffffffffffffffffffffffffffffff1660808173ffffffffffffffffffffffffffffffffffffffff1681525050600180819055505062000114565b5f80fd5b5f73ffffffffffffffffffffffffffffffffffffffff82169050919050565b5f620000ae8262000083565b9050919050565b620000c081620000a2565b8114620000cb575f80fd5b50565b5f81519050620000de81620000b5565b92915050565b5f60208284031215620000fc57620000fb6200007f565b5b5f6200010b84828501620000ce565b91505092915050565b608051612fab620001425f395f81816102c201528181610cdf01528181610ffe015261190e0152612fab5ff3fe608060405234801561000f575f80fd5b50600436106100cd575f3560e01c8063ae169a501161008a578063c4456bda11610064578063c4456bda14610232578063d37e00df14610250578063d88da59614610280578063da92dd021461029e576100cd565b8063ae169a50146101ca578063bc0ed6b5146101e6578063c31b087514610202576100cd565b80630f5de4b2146100d157806311eac855146100ef57806318d9adab1461010d5780633816400714610144578063716588961461017457806375187c40146101ae575b5f80fd5b6100d96102ba565b6040516100e69190611cd4565b60405180910390f35b6100f76102c0565b6040516101049190611d67565b60405180910390f35b61012760048036038101906101229190611dbb565b6102e4565b60405161013b989796959493929190611f03565b60405180910390f35b61015e60048036038101906101599190611dbb565b6103f8565b60405161016b9190611cd4565b60405180910390f35b61018e60048036038101906101899190611dbb565b610418565b6040516101a59b9a999897969594939291906121d3565b60405180910390f35b6101c860048036038101906101c3919061228b565b610738565b005b6101e460048036038101906101df9190611dbb565b610b18565b005b61020060048036038101906101fb919061228b565b610da2565b005b61021c600480360381019061021791906122f3565b6110bd565b60405161022991906123af565b60405180910390f35b61023a611472565b60405161024791906123af565b60405180910390f35b61026a600480360381019061026591906122f3565b6114c8565b60405161027791906123af565b60405180910390f35b6102886116bb565b6040516102959190611cd4565b60405180910390f35b6102b860048036038101906102b391906125dd565b6116c7565b005b60015481565b7f000000000000000000000000000000000000000000000000000000000000000081565b6002602052805f5260405f205f91509050805f015490806001015f9054906101000a900473ffffffffffffffffffffffffffffffffffffffff169080600201805461032e906126a6565b80601f016020809104026020016040519081016040528092919081815260200182805461035a906126a6565b80156103a55780601f1061037c576101008083540402835291602001916103a5565b820191905f5260205f20905b81548152906001019060200180831161038857829003601f168201915b50505050509080600401549080600901549080600a015f9054906101000a900460ff169080600b01549080600c015f9054906101000a900473ffffffffffffffffffffffffffffffffffffffff16905088565b60038181548110610407575f80fd5b905f5260205f20015f915090505481565b5f806060805f610426611ba6565b61042e611bc8565b5f805f805f60025f8e81526020019081526020015f2090505f815f01540361048b576040517f08c379a000000000000000000000000000000000000000000000000000000000815260040161048290612720565b60405180910390fd5b805f0154816001015f9054906101000a900473ffffffffffffffffffffffffffffffffffffffff16826002018360030184600401548560050186600701876009015488600a015f9054906101000a900460ff1689600b01548a600c015f9054906101000a900473ffffffffffffffffffffffffffffffffffffffff16888054610513906126a6565b80601f016020809104026020016040519081016040528092919081815260200182805461053f906126a6565b801561058a5780601f106105615761010080835404028352916020019161058a565b820191905f5260205f20905b81548152906001019060200180831161056d57829003601f168201915b5050505050985087805480602002602001604051908101604052809291908181526020015f905b82821015610659578382905f5260205f200180546105ce906126a6565b80601f01602080910402602001604051908101604052809291908181526020018280546105fa906126a6565b80156106455780601f1061061c57610100808354040283529160200191610645565b820191905f5260205f20905b81548152906001019060200180831161062857829003601f168201915b5050505050815260200190600101906105b1565b505050509750856002806020026040519081016040528092919082600280156106cc576020028201915b815f9054906101000a900473ffffffffffffffffffffffffffffffffffffffff1673ffffffffffffffffffffffffffffffffffffffff1681526020019060010190808311610683575b505050505095508460028060200260405190810160405280929190826002801561070b576020028201915b8154815260200190600101908083116106f7575b505050505094509b509b509b509b509b509b509b509b509b509b509b505091939597999b90929496989a50565b5f60025f8481526020019081526020015f2090505f815f015403610791576040517f08c379a000000000000000000000000000000000000000000000000000000000815260040161078890612720565b60405180910390fd5b806001015f9054906101000a900473ffffffffffffffffffffffffffffffffffffffff1673ffffffffffffffffffffffffffffffffffffffff163373ffffffffffffffffffffffffffffffffffffffff1614610822576040517f08c379a000000000000000000000000000000000000000000000000000000000815260040161081990612788565b60405180910390fd5b6001600381111561083657610835611e90565b5b81600a015f9054906101000a900460ff16600381111561085957610858611e90565b5b14610899576040517f08c379a0000000000000000000000000000000000000000000000000000000008152600401610890906127f0565b60405180910390fd5b806003018054905082106108e2576040517f08c379a00000000000000000000000000000000000000000000000000000000081526004016108d990612858565b60405180910390fd5b600281600a015f6101000a81548160ff0219169083600381111561090957610908611e90565b5b02179055508181600b018190555081816007015f6002811061092e5761092d612876565b5b0154036109b257806005015f6002811061094b5761094a612876565b5b015f9054906101000a900473ffffffffffffffffffffffffffffffffffffffff1681600c015f6101000a81548173ffffffffffffffffffffffffffffffffffffffff021916908373ffffffffffffffffffffffffffffffffffffffff160217905550610ab6565b81816007016001600281106109ca576109c9612876565b5b015403610a4f57806005016001600281106109e8576109e7612876565b5b015f9054906101000a900473ffffffffffffffffffffffffffffffffffffffff1681600c015f6101000a81548173ffffffffffffffffffffffffffffffffffffffff021916908373ffffffffffffffffffffffffffffffffffffffff160217905550610ab5565b806001015f9054906101000a900473ffffffffffffffffffffffffffffffffffffffff1681600c015f6101000a81548173ffffffffffffffffffffffffffffffffffffffff021916908373ffffffffffffffffffffffffffffffffffffffff1602179055505b5b827f1117121d66184cfb8b7bd276956adfc1dde4179f2610b1b5cba5ada26dbab3678383600c015f9054906101000a900473ffffffffffffffffffffffffffffffffffffffff16604051610b0b9291906128a3565b60405180910390a2505050565b610b206119bd565b5f60025f8381526020019081526020015f2090505f815f015403610b79576040517f08c379a0000000000000000000000000000000000000000000000000000000008152600401610b7090612720565b60405180910390fd5b60026003811115610b8d57610b8c611e90565b5b81600a015f9054906101000a900460ff166003811115610bb057610baf611e90565b5b14610bf0576040517f08c379a0000000000000000000000000000000000000000000000000000000008152600401610be790612914565b60405180910390fd5b80600c015f9054906101000a900473ffffffffffffffffffffffffffffffffffffffff1673ffffffffffffffffffffffffffffffffffffffff163373ffffffffffffffffffffffffffffffffffffffff1614610c81576040517f08c379a0000000000000000000000000000000000000000000000000000000008152600401610c789061297c565b60405180910390fd5b600381600a015f6101000a81548160ff02191690836003811115610ca857610ca7611e90565b5b02179055505f81600901549050610d2382600c015f9054906101000a900473ffffffffffffffffffffffffffffffffffffffff16827f000000000000000000000000000000000000000000000000000000000000000073ffffffffffffffffffffffffffffffffffffffff16611a019092919063ffffffff16565b81600c015f9054906101000a900473ffffffffffffffffffffffffffffffffffffffff1673ffffffffffffffffffffffffffffffffffffffff16837f24b5efa61dd1cfc659205a97fb8ed868f3cb8c81922bab2b96423e5de1de2cb783604051610d8d9190611cd4565b60405180910390a35050610d9f611a80565b50565b610daa6119bd565b5f60025f8481526020019081526020015f2090505f815f015403610e03576040517f08c379a0000000000000000000000000000000000000000000000000000000008152600401610dfa90612720565b60405180910390fd5b5f6003811115610e1657610e15611e90565b5b81600a015f9054906101000a900460ff166003811115610e3957610e38611e90565b5b14610e79576040517f08c379a0000000000000000000000000000000000000000000000000000000008152600401610e70906129e4565b60405180910390fd5b806001015f9054906101000a900473ffffffffffffffffffffffffffffffffffffffff1673ffffffffffffffffffffffffffffffffffffffff163373ffffffffffffffffffffffffffffffffffffffff1603610f0a576040517f08c379a0000000000000000000000000000000000000000000000000000000008152600401610f0190612a4c565b60405180910390fd5b80600301805490508210610f53576040517f08c379a0000000000000000000000000000000000000000000000000000000008152600401610f4a90612ab4565b60405180910390fd5b3381600501600160028110610f6b57610f6a612876565b5b015f6101000a81548173ffffffffffffffffffffffffffffffffffffffff021916908373ffffffffffffffffffffffffffffffffffffffff1602179055508181600701600160028110610fc157610fc0612876565b5b0181905550600181600a015f6101000a81548160ff02191690836003811115610fed57610fec611e90565b5b0217905550611043333083600401547f000000000000000000000000000000000000000000000000000000000000000073ffffffffffffffffffffffffffffffffffffffff16611a89909392919063ffffffff16565b8060040154816009015f82825461105a9190612aff565b925050819055503373ffffffffffffffffffffffffffffffffffffffff16837f03dfbe1fcb4e2d61f3b4a0c93d8f814c92250618b3387f396cc9fc9fafe2c203846040516110a89190611cd4565b60405180910390a3506110b9611a80565b5050565b60605f805b60038054905081101561124e575f60025f600384815481106110e7576110e6612876565b5b905f5260205f20015481526020019081526020015f2090508473ffffffffffffffffffffffffffffffffffffffff16816005015f6002811061112c5761112b612876565b5b015f9054906101000a900473ffffffffffffffffffffffffffffffffffffffff1673ffffffffffffffffffffffffffffffffffffffff1614806111d157508473ffffffffffffffffffffffffffffffffffffffff168160050160016002811061119857611197612876565b5b015f9054906101000a900473ffffffffffffffffffffffffffffffffffffffff1673ffffffffffffffffffffffffffffffffffffffff16145b801561122c57508473ffffffffffffffffffffffffffffffffffffffff16816001015f9054906101000a900473ffffffffffffffffffffffffffffffffffffffff1673ffffffffffffffffffffffffffffffffffffffff1614155b1561124057828061123c90612b32565b9350505b5080806001019150506110c2565b505f8167ffffffffffffffff81111561126a576112696123d7565b5b6040519080825280602002602001820160405280156112985781602001602082028036833780820191505090505b5090505f805b600380549050811015611466575f60025f600384815481106112c3576112c2612876565b5b905f5260205f20015481526020019081526020015f2090508673ffffffffffffffffffffffffffffffffffffffff16816005015f6002811061130857611307612876565b5b015f9054906101000a900473ffffffffffffffffffffffffffffffffffffffff1673ffffffffffffffffffffffffffffffffffffffff1614806113ad57508673ffffffffffffffffffffffffffffffffffffffff168160050160016002811061137457611373612876565b5b015f9054906101000a900473ffffffffffffffffffffffffffffffffffffffff1673ffffffffffffffffffffffffffffffffffffffff16145b801561140857508673ffffffffffffffffffffffffffffffffffffffff16816001015f9054906101000a900473ffffffffffffffffffffffffffffffffffffffff1673ffffffffffffffffffffffffffffffffffffffff1614155b15611458576003828154811061142157611420612876565b5b905f5260205f20015484848151811061143d5761143c612876565b5b602002602001018181525050828061145490612b32565b9350505b50808060010191505061129e565b50819350505050919050565b606060038054806020026020016040519081016040528092919081815260200182805480156114be57602002820191905f5260205f20905b8154815260200190600101908083116114aa575b5050505050905090565b60605f805b600380549050811015611578578373ffffffffffffffffffffffffffffffffffffffff1660025f6003848154811061150857611507612876565b5b905f5260205f20015481526020019081526020015f206001015f9054906101000a900473ffffffffffffffffffffffffffffffffffffffff1673ffffffffffffffffffffffffffffffffffffffff160361156b57818061156790612b32565b9250505b80806001019150506114cd565b505f8167ffffffffffffffff811115611594576115936123d7565b5b6040519080825280602002602001820160405280156115c25781602001602082028036833780820191505090505b5090505f805b6003805490508110156116af578573ffffffffffffffffffffffffffffffffffffffff1660025f6003848154811061160357611602612876565b5b905f5260205f20015481526020019081526020015f206001015f9054906101000a900473ffffffffffffffffffffffffffffffffffffffff1673ffffffffffffffffffffffffffffffffffffffff16036116a2576003818154811061166b5761166a612876565b5b905f5260205f20015483838151811061168757611686612876565b5b602002602001018181525050818061169e90612b32565b9250505b80806001019150506115c8565b50819350505050919050565b5f600380549050905090565b6116cf6119bd565b600283511015611714576040517f08c379a000000000000000000000000000000000000000000000000000000000815260040161170b90612bc3565b60405180910390fd5b82518110611757576040517f08c379a000000000000000000000000000000000000000000000000000000000815260040161174e90612ab4565b60405180910390fd5b5f8211611799576040517f08c379a000000000000000000000000000000000000000000000000000000000815260040161179090612c51565b60405180910390fd5b5f60015f8154809291906117ac90612b32565b9190505590505f60025f8381526020019081526020015f20905081815f018190555033816001015f6101000a81548173ffffffffffffffffffffffffffffffffffffffff021916908373ffffffffffffffffffffffffffffffffffffffff160217905550858160020190816118219190612e03565b508481600301908051906020019061183a929190611bea565b5083816004018190555033816005015f6002811061185b5761185a612876565b5b015f6101000a81548173ffffffffffffffffffffffffffffffffffffffff021916908373ffffffffffffffffffffffffffffffffffffffff16021790555082816007015f600281106118b0576118af612876565b5b01819055505f81600a015f6101000a81548160ff021916908360038111156118db576118da611e90565b5b0217905550600382908060018154018082558091505060019003905f5260205f20015f90919091909150556119533330867f000000000000000000000000000000000000000000000000000000000000000073ffffffffffffffffffffffffffffffffffffffff16611a89909392919063ffffffff16565b8381600901819055503373ffffffffffffffffffffffffffffffffffffffff16827f47208c1105da21340d2ab62369dbc0bddfed533adfc522509dd7a06980860b5388876040516119a5929190612ed2565b60405180910390a350506119b7611a80565b50505050565b60025f54036119f8576040517f3ee5aeb500000000000000000000000000000000000000000000000000000000815260040160405180910390fd5b60025f81905550565b611a7b838473ffffffffffffffffffffffffffffffffffffffff1663a9059cbb8585604051602401611a34929190612f00565b604051602081830303815290604052915060e01b6020820180517bffffffffffffffffffffffffffffffffffffffffffffffffffffffff8381831617835250505050611b0b565b505050565b60015f81905550565b611b05848573ffffffffffffffffffffffffffffffffffffffff166323b872dd868686604051602401611abe93929190612f27565b604051602081830303815290604052915060e01b6020820180517bffffffffffffffffffffffffffffffffffffffffffffffffffffffff8381831617835250505050611b0b565b50505050565b5f8060205f8451602086015f885af180611b2a576040513d5f823e3d81fd5b3d92505f519150505f8214611b43576001811415611b5e565b5f8473ffffffffffffffffffffffffffffffffffffffff163b145b15611ba057836040517f5274afe7000000000000000000000000000000000000000000000000000000008152600401611b979190612f5c565b60405180910390fd5b50505050565b6040518060400160405280600290602082028036833780820191505090505090565b6040518060400160405280600290602082028036833780820191505090505090565b828054828255905f5260205f20908101928215611c30579160200282015b82811115611c2f578251829081611c1f9190612e03565b5091602001919060010190611c08565b5b509050611c3d9190611c41565b5090565b5b80821115611c60575f8181611c579190611c64565b50600101611c42565b5090565b508054611c70906126a6565b5f825580601f10611c815750611c9e565b601f0160209004905f5260205f2090810190611c9d9190611ca1565b5b50565b5b80821115611cb8575f815f905550600101611ca2565b5090565b5f819050919050565b611cce81611cbc565b82525050565b5f602082019050611ce75f830184611cc5565b92915050565b5f73ffffffffffffffffffffffffffffffffffffffff82169050919050565b5f819050919050565b5f611d2f611d2a611d2584611ced565b611d0c565b611ced565b9050919050565b5f611d4082611d15565b9050919050565b5f611d5182611d36565b9050919050565b611d6181611d47565b82525050565b5f602082019050611d7a5f830184611d58565b92915050565b5f604051905090565b5f80fd5b5f80fd5b611d9a81611cbc565b8114611da4575f80fd5b50565b5f81359050611db581611d91565b92915050565b5f60208284031215611dd057611dcf611d89565b5b5f611ddd84828501611da7565b91505092915050565b5f611df082611ced565b9050919050565b611e0081611de6565b82525050565b5f81519050919050565b5f82825260208201905092915050565b5f5b83811015611e3d578082015181840152602081019050611e22565b5f8484015250505050565b5f601f19601f8301169050919050565b5f611e6282611e06565b611e6c8185611e10565b9350611e7c818560208601611e20565b611e8581611e48565b840191505092915050565b7f4e487b71000000000000000000000000000000000000000000000000000000005f52602160045260245ffd5b60048110611ece57611ecd611e90565b5b50565b5f819050611ede82611ebd565b919050565b5f611eed82611ed1565b9050919050565b611efd81611ee3565b82525050565b5f61010082019050611f175f83018b611cc5565b611f24602083018a611df7565b8181036040830152611f368189611e58565b9050611f456060830188611cc5565b611f526080830187611cc5565b611f5f60a0830186611ef4565b611f6c60c0830185611cc5565b611f7960e0830184611df7565b9998505050505050505050565b5f81519050919050565b5f82825260208201905092915050565b5f819050602082019050919050565b5f82825260208201905092915050565b5f611fc982611e06565b611fd38185611faf565b9350611fe3818560208601611e20565b611fec81611e48565b840191505092915050565b5f6120028383611fbf565b905092915050565b5f602082019050919050565b5f61202082611f86565b61202a8185611f90565b93508360208202850161203c85611fa0565b805f5b8581101561207757848403895281516120588582611ff7565b94506120638361200a565b925060208a0199505060018101905061203f565b50829750879550505050505092915050565b5f60029050919050565b5f81905092915050565b5f819050919050565b6120af81611de6565b82525050565b5f6120c083836120a6565b60208301905092915050565b5f602082019050919050565b6120e181612089565b6120eb8184612093565b92506120f68261209d565b805f5b8381101561212657815161210d87826120b5565b9650612118836120cc565b9250506001810190506120f9565b505050505050565b5f60029050919050565b5f81905092915050565b5f819050919050565b61215481611cbc565b82525050565b5f612165838361214b565b60208301905092915050565b5f602082019050919050565b6121868161212e565b6121908184612138565b925061219b82612142565b805f5b838110156121cb5781516121b2878261215a565b96506121bd83612171565b92505060018101905061219e565b505050505050565b5f6101a0820190506121e75f83018e611cc5565b6121f4602083018d611df7565b8181036040830152612206818c611e58565b9050818103606083015261221a818b612016565b9050612229608083018a611cc5565b61223660a08301896120d8565b61224360e083018861217d565b612251610120830187611cc5565b61225f610140830186611ef4565b61226d610160830185611cc5565b61227b610180830184611df7565b9c9b505050505050505050505050565b5f80604083850312156122a1576122a0611d89565b5b5f6122ae85828601611da7565b92505060206122bf85828601611da7565b9150509250929050565b6122d281611de6565b81146122dc575f80fd5b50565b5f813590506122ed816122c9565b92915050565b5f6020828403121561230857612307611d89565b5b5f612315848285016122df565b91505092915050565b5f81519050919050565b5f82825260208201905092915050565b5f819050602082019050919050565b5f602082019050919050565b5f61235d8261231e565b6123678185612328565b935061237283612338565b805f5b838110156123a2578151612389888261215a565b975061239483612347565b925050600181019050612375565b5085935050505092915050565b5f6020820190508181035f8301526123c78184612353565b905092915050565b5f80fd5b5f80fd5b7f4e487b71000000000000000000000000000000000000000000000000000000005f52604160045260245ffd5b61240d82611e48565b810181811067ffffffffffffffff8211171561242c5761242b6123d7565b5b80604052505050565b5f61243e611d80565b905061244a8282612404565b919050565b5f67ffffffffffffffff821115612469576124686123d7565b5b61247282611e48565b9050602081019050919050565b828183375f83830152505050565b5f61249f61249a8461244f565b612435565b9050828152602081018484840111156124bb576124ba6123d3565b5b6124c684828561247f565b509392505050565b5f82601f8301126124e2576124e16123cf565b5b81356124f284826020860161248d565b91505092915050565b5f67ffffffffffffffff821115612515576125146123d7565b5b602082029050602081019050919050565b5f80fd5b5f61253c612537846124fb565b612435565b9050808382526020820190506020840283018581111561255f5761255e612526565b5b835b818110156125a657803567ffffffffffffffff811115612584576125836123cf565b5b80860161259189826124ce565b85526020850194505050602081019050612561565b5050509392505050565b5f82601f8301126125c4576125c36123cf565b5b81356125d484826020860161252a565b91505092915050565b5f805f80608085870312156125f5576125f4611d89565b5b5f85013567ffffffffffffffff81111561261257612611611d8d565b5b61261e878288016124ce565b945050602085013567ffffffffffffffff81111561263f5761263e611d8d565b5b61264b878288016125b0565b935050604061265c87828801611da7565b925050606061266d87828801611da7565b91505092959194509250565b7f4e487b71000000000000000000000000000000000000000000000000000000005f52602260045260245ffd5b5f60028204905060018216806126bd57607f821691505b6020821081036126d0576126cf612679565b5b50919050565b7f546f70696320646f6573206e6f742065786973740000000000000000000000005f82015250565b5f61270a601483611e10565b9150612715826126d6565b602082019050919050565b5f6020820190508181035f830152612737816126fe565b9050919050565b7f4f6e6c792063726561746f722063616e207265736f6c766500000000000000005f82015250565b5f612772601883611e10565b915061277d8261273e565b602082019050919050565b5f6020820190508181035f83015261279f81612766565b9050919050565b7f546f706963206e6f7420616374697665000000000000000000000000000000005f82015250565b5f6127da601083611e10565b91506127e5826127a6565b602082019050919050565b5f6020820190508181035f830152612807816127ce565b9050919050565b7f496e76616c69642077696e6e696e67206f7074696f6e000000000000000000005f82015250565b5f612842601683611e10565b915061284d8261280e565b602082019050919050565b5f6020820190508181035f83015261286f81612836565b9050919050565b7f4e487b71000000000000000000000000000000000000000000000000000000005f52603260045260245ffd5b5f6040820190506128b65f830185611cc5565b6128c36020830184611df7565b9392505050565b7f546f706963206e6f74207265736f6c76656400000000000000000000000000005f82015250565b5f6128fe601283611e10565b9150612909826128ca565b602082019050919050565b5f6020820190508181035f83015261292b816128f2565b9050919050565b7f4f6e6c792077696e6e65722063616e20636c61696d00000000000000000000005f82015250565b5f612966601583611e10565b915061297182612932565b602082019050919050565b5f6020820190508181035f8301526129938161295a565b9050919050565b7f546f706963206e6f7420617661696c61626c6520666f72206a6f696e696e67005f82015250565b5f6129ce601f83611e10565b91506129d98261299a565b602082019050919050565b5f6020820190508181035f8301526129fb816129c2565b9050919050565b7f43726561746f722063616e6e6f74206a6f696e206f776e20746f7069630000005f82015250565b5f612a36601d83611e10565b9150612a4182612a02565b602082019050919050565b5f6020820190508181035f830152612a6381612a2a565b9050919050565b7f496e76616c69642063686f6963650000000000000000000000000000000000005f82015250565b5f612a9e600e83611e10565b9150612aa982612a6a565b602082019050919050565b5f6020820190508181035f830152612acb81612a92565b9050919050565b7f4e487b71000000000000000000000000000000000000000000000000000000005f52601160045260245ffd5b5f612b0982611cbc565b9150612b1483611cbc565b9250828201905080821115612b2c57612b2b612ad2565b5b92915050565b5f612b3c82611cbc565b91507fffffffffffffffffffffffffffffffffffffffffffffffffffffffffffffffff8203612b6e57612b6d612ad2565b5b600182019050919050565b7f4174206c656173742032206f7074696f6e7320726571756972656400000000005f82015250565b5f612bad601b83611e10565b9150612bb882612b79565b602082019050919050565b5f6020820190508181035f830152612bda81612ba1565b9050919050565b7f42657420616d6f756e74206d7573742062652067726561746572207468616e205f8201527f3000000000000000000000000000000000000000000000000000000000000000602082015250565b5f612c3b602183611e10565b9150612c4682612be1565b604082019050919050565b5f6020820190508181035f830152612c6881612c2f565b9050919050565b5f819050815f5260205f209050919050565b5f6020601f8301049050919050565b5f82821b905092915050565b5f60088302612ccb7fffffffffffffffffffffffffffffffffffffffffffffffffffffffffffffffff82612c90565b612cd58683612c90565b95508019841693508086168417925050509392505050565b5f612d07612d02612cfd84611cbc565b611d0c565b611cbc565b9050919050565b5f819050919050565b612d2083612ced565b612d34612d2c82612d0e565b848454612c9c565b825550505050565b5f90565b612d48612d3c565b612d53818484612d17565b505050565b5b81811015612d7657612d6b5f82612d40565b600181019050612d59565b5050565b601f821115612dbb57612d8c81612c6f565b612d9584612c81565b81016020851015612da4578190505b612db8612db085612c81565b830182612d58565b50505b505050565b5f82821c905092915050565b5f612ddb5f1984600802612dc0565b1980831691505092915050565b5f612df38383612dcc565b9150826002028217905092915050565b612e0c82611e06565b67ffffffffffffffff811115612e2557612e246123d7565b5b612e2f82546126a6565b612e3a828285612d7a565b5f60209050601f831160018114612e6b575f8415612e59578287015190505b612e638582612de8565b865550612eca565b601f198416612e7986612c6f565b5f5b82811015612ea057848901518255600182019150602085019450602081019050612e7b565b86831015612ebd5784890151612eb9601f891682612dcc565b8355505b6001600288020188555050505b505050505050565b5f6040820190508181035f830152612eea8185611e58565b9050612ef96020830184611cc5565b9392505050565b5f604082019050612f135f830185611df7565b612f206020830184611cc5565b9392505050565b5f606082019050612f3a5f830186611df7565b612f476020830185611df7565b612f546040830184611cc5565b949350505050565b5f602082019050612f6f5f830184611df7565b9291505056fea2646970667358221220cdd297cb6da71ef7f19f3faec00a3503cea2708e22daee6316f883e24bfddc9d64736f6c63430008180033",
  "linkReferences": {},
  "deployedLinkReferences": {},
  "immutableReferences": {
    "1506": [
      {
        "length": 32,
        "start": 706
      },
      {
        "length": 32,
        "start": 3295
      },
      {
        "length": 32,
        "start": 4094
      },
      {
        "length": 32,
        "start": 6414
      }
    ]
  },
  "inputSourceName": "project/contracts/PredictionMarket.sol",
  "buildInfoId": "solc-0_8_24-cf4ee9eb7b799b4a44368a7af7771069cfc5a057"
}